:020000040800F2
:10000000F04E002061A60008E1A40008E3A4000867
:1000100000000000000000000000000000000000E0
:100020000000000000000000000000002737020868
:100030000000000000000000C7010008F5A400084F
:1000400073A6000873A60008A56C010873A6000833
:1000500073A60008336701084F6701086B67010842
:1000600073A6000873A6000873A6000873A600080C
:1000700073A6000873A6000873A60008B7790108E4
:10008000C179010873A6000873A6000800000000EB
:1000900073A6000873A6000873A6000873A60008DC
:1000A00073A6000873A6000873A60008DB76010893
:1000B000D176010873A6000873A6000873A600088D
:1000C00000F002F800F059F80CA030C808382418E5
:1000D0002D18A246671EAB4654465D46AC4201D180
:1000E00000F04BF87E460F3E0FCCB6460126334259
:1000F00000D0FB1AA246AB463343184748C1020062
:1001000068C102000023002400250026103A01D314
:1001100078C1FBD8520700D330C100D50B607047BF
:1001200010B5662902D129F0F1F910BD642902D178
:1001300025F092FD10BD782902D125F0C3FD10BD38
:10014000732902D127F0D6FA10BD002010BD1FB5CB
:100150000098019926F0EFFF27F052FC04000020E0
:10016000002128F0FDFF401C60600020002129F0E4
:100170000DF8E0601FBD10B510BD27F0FCFF114663
:10018000FFF7E5FF00F05CF828F07CFA03B4FFF716
:10019000F2FF03BC28F0DCFA064B1968086820302F
:1001A00080F30988022080F314883FBCAE4662B613
:1001B00000BD000064030020EFF3108072B67047AA
:1001C00080F310887047EFF309800E4B1A682038CF
:1001D0001060F0C044464D4656465F46F0C008B534
:1001E00072B622F09BFA62B60CBC11680868103037
:1001F000F0C8A046A946B246BB4680F3098820381D
:10020000F0C818476403002070B505460C46164632
:1002100002E00FCC0FC5103E102EFAD2082E02D3EA
:1002200003CC03C5083E042E07D301CC01C5361FFD
:1002300003E021782970641C6D1C761EF9D270BD14
:100240001FB515F0F3FE02F07CF8002001230190A9
:10025000029000930390034660227CA17E4821F027
:1002600084FF002004230190029000930390034632
:10027000FF22813279A17C4821F077FF00200323FF
:1002800001900290009303900346FF22193277A158
:10029000794821F06AFF0020022301900290009328
:1002A00003900346602275A1774821F05EFF22F09B
:1002B000EBFB002004B010BD744A1060744A11605A
:1002C00000BFFEE700BFFEE710B504460020206037
:1002D00025F042FA15F0C3FE0DF090F80DF030F95C
:1002E0000DF01EF9012108460DF0B5F810BD10B54E
:1002F000044615F09BFE25F0D1F910BDF1B582B092
:1003000017F010FB002800D0FEBD17F0B1FA00284E
:1003100000D0F9E75F4902980968884202D95D4830
:10032000006802905C480069400840005A49086132
:10033000084681690298401E584A126850430C18BA
:1003400057480068844202D955480068241A72B69A
:1003500022F0CEFD00280FD14F4880694E494861F8
:1003600008460069012108434B4908614B48006871
:10037000401E486162B666E0474844610020464935
:1003800088610846006901210843434908610298D1
:10039000019001A8FFF798FF0198002804D0BFF34F
:1003A0004F8F30BFBFF36F8F02A8FFF7A0FF3A480F
:1003B0000769780840003849086162B601200004E6
:1003C0003840002816D035490968491E324A9269DA
:1003D000A21A881A32490968884203D32F4909684A
:1003E000884202D92D490968481E2B494861029963
:1003F0004D1E13E029490298096848432649896936
:10040000461A26480168304625F050FF0546681C0C
:10041000224909684843801B1F49486100201E4942
:10042000886123F0D9F91C480069012108431A4961
:100430000861284622F000FC18480068401E164952
:10044000486123F0D4F900BF5EE7000054696D6590
:10045000725461736B000000712300084C6F52618D
:100460004D61635461736B00DFFD01085374617467
:10047000655461736B000000851D0008556172743E
:100480005461736B00000000FD2700081C00002071
:1004900020000020BC03002000E000E0B8030020A2
:1004A000C003002070B588B004460E4668468480BC
:1004B00000258088FF380338002802D0012802D1A7
:1004C00000E000BF00E000BF00BF00231A4601A902
:1004D000F948006821F02DFC012809D1012D04D133
:1004E000002D02D00007F5494860002008B070BD1B
:1004F0000120FBE710B50446002C05D10021FF20A8
:100500000130FFF7CFFF06E0012C04D10021FF20CE
:100510000230FFF7C7FF10BD30B58DB005460C4661
:1005200068460583008B002806D0012807D00228E2
:1005300021D003287ED11FE02068079090E0A268B8
:1005400021686068059203910490049908910499C8
:10055000481C22F0F3FF07906846017D06A801734E
:10056000049A511C079825F023FE049A03990798D2
:1005700025F0B8FD74E073E0182221466846FFF7C5
:1005800043FE68460088012805D068460088FF21A0
:100590000631884224D1684601888183017C06A8FF
:1005A00001756846C18806A841816846017906A898
:1005B00001726846017A06A801736946097A481CE7
:1005C00022F0BCFF0A906A46127A511C0A9825F064
:1005D000EFFD6B461A7A03990A9825F083FD3DE0FA
:1005E00068460088132834D16846018881830179E0
:1005F00006A801726846017B06A801746946097B5A
:10060000481C22F09BFF09906A46127B511C0998F6
:1006100025F0CEFD6B461A7B0299099825F062FD04
:100620006846017D06A801766946097D481C22F0CE
:1006300085FF00E013E00B906A46127D511C0B9879
:1006400025F0B6FD6B461A7D04990B9825F04AFDFE
:1006500004E01822694607A8FFF7D6FD00E000BFB6
:1006600000BF00231A4606A99348006821F051F9FB
:10067000012802D100200DB030BD0120FBE701B5FB
:1006800069460020FFF748FF08BD0FB410B502A966
:100690000320FFF741FF10BC08BC04B01847F0B5B9
:1006A00085B007460E461446204622F047FF054611
:1006B0002146284625F07CFD002000900346804A14
:1006C000214602950190304620F0C3FE224629467D
:1006D000384615F028FE0390284622F0B8FF03980C
:1006E00005B0F0BD10B507F0CBFC05F055F906F0EC
:1006F00098F803F0CDFE734C902273492046FFF723
:10070000CEFF9034A62271492046FFF7C8FFA634D9
:1007100034226F492046FFF7C2FF34343B221201D6
:100720006C49204615F0FFFD10BDFEB506460C468F
:100730001546284622F002FF07462946384625F08E
:1007400037FD2A463946304615F0D6FD0020009088
:1007500003465B4A294602940190384620F0E1FEA8
:10076000384622F074FF06225B49204625F0E5FB5F
:10077000002801D00020FEBD0120FCE770B5012457
:10078000504D902250492846FFF7CFFF0440903546
:10079000A6224E492846FFF7C8FF0440A63534225A
:1007A0004B492846FFF7C1FF044034353B22120174
:1007B0004849284615F0A0FD002C09D108F08DF914
:1007C00008F047F908F018F904F03CFCFFF78AFF3D
:1007D000204670BDF8B505460E46174600240EE0CB
:1007E00000200090600041190A786846027049783C
:1007F00041701022002125F065FB3055641CBC427D
:10080000EEDBF8BDF7B586B005460F46142233A1DE
:1008100001A8FFF7F9FC00240DE03E5D301101A9AD
:10082000085C610068543007000F01A9095C600092
:10083000401C2954641C08988442EEDB09B0F0BDCA
:10084000FFB58DB01D462148C77D0E9801780C91EB
:10085000169804780026FDE30D990C98085C214653
:10086000621CD4B268540C99481CC2B20C920D9808
:10087000405CBD2801D100F0C6FF43DC0A2875D0DA
:1008800010DCC01E072801D301F0E4F943007B44CB
:100890009B885B009F4452007A02DB02DE09BD03A5
:1008A0009A04FE04BA2801D100F0F6FE23DCB22837
:1008B0001ED100F074FE00005000002000ED00E0AA
:1008C0003E00002040060808400A0020D00A002010
:1008D000780B0020B00B00206495020830313233D1
:1008E000343536373839414243444546000000002C
:1008F000B928C9D1FCE3BB2801D100F002FFBC2814
:10090000C2D1F6E3BE381428BED243007B449B8894
:100910005B009F44BA07FB079F099F093C087D08BD
:100920008D08C008F9089F099F099F099F099F0921
:100930002D099F096E098709CF0502060C99481CED
:10094000C2B20C920D98465C012E01D0F22E7DD1E0
:100950000C99481CC2B20C920D98435CF22E06D141
:1009600002212046621CD4B2295404E0FEE3204652
:10097000611CCCB22E542046611CCCB22B54012FEA
:1009800007D0022F05D0032F03D0062F01D0072F49
:1009900027D1F748C0790101F548007A0007000F18
:1009A00001432046621CD4B22954F1488038808823
:1009B00001122046621CD4B22954ED4880380179D6
:1009C0002046621CD4B22954702018400101E84826
:1009D000407A0007000F01432046621CD4B229541C
:1009E000D3E1042F05D0052F03D0082F01D0092F04
:1009F000F6D1E048C0790001DE49097A0907090FFC
:100A00000843C1B22046621CD4B229545900D948C7
:100A10008438405A01122046621CD4B2295459002D
:100A2000D4488438415C2046621CD4B229547020DA
:100A300018400001CF49497A0907090F0843C1B29C
:100A40002046621CD4B229549FE1FFE7022E7CD1DC
:100A500000210991089107910491059106910C9943
:100A6000481CC2B20C920D98435C012F07D0022F94
:100A700005D0032F03D0062F01D0072F05D1BC4886
:100A800080388088694608821EE0BB48C07D042803
:100A900007D0B948C07D052803D0082F01D0092F01
:100AA00012D100200B900CE00B984100B148843823
:100AB000415A0B98400004AA11520B98401CC1B235
:100AC0000B910B980628EFDB0C99481CC2B20C92D4
:100AD0000D98405C41B2089108980107090F0991EF
:100AE00008980006010F08910C99481CC2B20C929C
:100AF0000D98405C01020A910C99481CC2B20C92FC
:100B00000D98415C0A9801430A910C99481CC2B2A5
:100B10000C920D98415C079107984006430F079887
:100B20000107090F07910798002801D101200790BC
:100B3000012F07D0022F05D0032F03D0062F01D09D
:100B4000072F2FD100200B9014E019E1062B0DD1B7
:100B50000B98C1008648FC384058002806D0012078
:100B60000B9988400A99084380B20A900B98401C60
:100B7000C1B20B91814909780B988842E6DB68463F
:100B80000A9901820898C1B27948C1710998C1B225
:100B900077480172079941726846018A7448803823
:100BA0008180DBE0042F03D0052F01D0082F71D105
:100BB000062B34D100210391029126E00020019000
:100BC00018E0019903984018C1006948FC38405862
:100BD00000280BD00298400004A9095A012201986C
:100BE000824011430298400004AA11520198401C0F
:100BF000C1B2019101981028E3DB03981030C1B213
:100C000003910298401CC1B202915C4800780838F8
:100C100003998842D2DC69460A9808830FE0072BC3
:100C200009D100216846018241828182C1826946E0
:100C30000A98088303E0590004AA0A9850520898B9
:100C4000C1B24C48C1710998C1B24A4801724949C0
:100C5000079848726846018A464888388180684605
:100C6000418A4448843841806846818A41488438B2
:100C700081806846C18A3F488438C1806846018BBC
:100C80003C48843801816846418B3A488438418128
:100C900064E0FFE7092F61D1062B30D100210391D9
:100CA000029126E00020019018E001990398401875
:100CB000C1002F48FC38405800280BD00298400053
:100CC00004A9095A01220198824011430298400068
:100CD00004AA11520198401CC1B201910198102838
:100CE000E3DB03981030C1B203910298401CC1B2FB
:100CF00002912249097803988842D3DB05E0072B4B
:100D000003D0590004AA0A9850520898C1B2194851
:100D1000C1710998C1B21748017216490798487203
:100D20006846018A1348883881806846418A11489C
:100D3000843841806846818A0E48843881806846BC
:100D4000C18A0C488438C1806846018B09488438C0
:100D500001816846418B074884384181F221204651
:100D6000621CD4B229542046611CCCB22B540CE036
:100D7000B80C0020400F0020D00A002024000020E2
:100D800000262046611CCCB22E54FDE30C99481C71
:100D9000C2B20C920D98465C012E01D0F22E2BD1DE
:100DA000F22E05D102202146621CD4B2685403E021
:100DB0002046611CCCB22E54012F07D0022F05D043
:100DC000032F03D0062F01D0072F06D1FA488079D0
:100DD0002146621CD4B2685438E0042F05D0052F98
:100DE00003D0082F01D0092F30D1F4488079214653
:100DF000621CD4B2685429E0022E22D10C99481CFE
:100E0000C2B20C920D98435C012F07D0022F05D07F
:100E1000032F03D0062F01D0072F02D1E64883719C
:100E200009E0042F05D0052F03D0082F01D0092F8A
:100E300001D1E2488371F2212046621CD4B22954C8
:100E400004E000262046611CCCB22E549DE70C998C
:100E5000481CC2B20C920D98465C012E01D0F22EB5
:100E600079D1F22E05D102202146621CD4B26854F9
:100E700003E02046611CCCB22E54012F07D0022F74
:100E800005D0032F03D0062F01D0072F2DD1CA483C
:100E9000007B0101C848007D0007000F0143C8B274
:100EA0002146621CD4B26854C3490869642125F004
:100EB000FDF9000E2146621CD4B26854BE4908698F
:100EC000642125F0F3F90002000E2146621CD4B221
:100ED0006854B9490869642125F0E8F90004000E56
:100EE0002146621CD4B2685492E0042F05D0052F2D
:100EF00003D0082F01D0092F2BD1B048007B00016F
:100F0000AE49097D0907090F08432146621CD4B286
:100F10006854AA490869642125F0C8F9000E2146E1
:100F2000621CD4B26854A5490869642125F0BEF951
:100F30000002000E2146621CD4B268549F49086921
:100F4000642125F0B3F90004000E2146621CD4B2DE
:100F500068545DE0FFE7022E55D100BF00BF00BF1F
:100F60000D990C98085C4006410F0A910D990C9858
:100F7000085C0107090F0B910C98401CC1B20C9141
:100F80000C99481CC2B20C920D98405C03040C9959
:100F9000481CC2B20C920D98405C01020B430C99A4
:100FA000481CC2B20C920D98415C0B436420434331
:100FB000012F07D0022F05D0032F03D0062F01D019
:100FC000072F09D10A98C1B27B4801730B98C1B2AF
:100FD00079480175036110E0042F05D0052F03D077
:100FE000082F01D0092F08D10A98C1B273480173A4
:100FF0000B98C1B2714801750361F2212046621C51
:10100000D4B2295404E000262046611CCCB22E54F0
:10101000BBE60C99481CC2B20C920D98465C012E9E
:1010200001D0F22E66D1012F07D0022F05D0032F59
:1010300003D0062F01D0072F4CD10C99481CC2B207
:101040000C920D98415C0B91F22E07D102202146A3
:10105000621C00E0FEE3D4B2685403E02046611C49
:10106000CCB22E542146621CD4B20B9868540B9912
:10107000CA005149FC398858642125F017F900024B
:10108000000E2146621CD4B268540B99CA004A492A
:10109000FC398858642125F009F90004000E214626
:1010A000621CD4B268540B99CA004349FC39885871
:1010B000642125F0FBF82146621CD4B268540B98D9
:1010C000C1003D48FC38081800792146621CD4B2A2
:1010D00068547AE0042F05D0052F03D0082F01D0E3
:1010E000092F72D100202146621CD4B268546CE0F2
:1010F0009DE247E3022E63D100BF00BF00BF0C9901
:10110000481CC2B20C920D98405C41B20B910C99F4
:10111000481CC2B20C920D98405C03040C99481C08
:10112000C2B20C920D98405C01020B430C99481C12
:10113000C2B20C920D98415C0B43642019464143A6
:101140000B460C99481CC2B20C920D98415C0A9156
:10115000012F07D0022F05D0032F03D0062F01D077
:10116000072F1AD10B98C100134800E001E1FC38A9
:1011700043500A9841B20B98C2000F48FC3810182F
:101180000171F2212046621CD4B229540B98C1B2DD
:101190002046621CD4B229540CE0042F05D0052F40
:1011A00003D0082F01D0092F04D100212046621C52
:1011B000D4B2295409E003E0B80C0020400F00200D
:1011C00000262046611CCCB22E54DEE50C99481C4A
:1011D000C2B20C920D98465C012E01D0F22E2BD19A
:1011E000F22E05D102202146621CD4B2685403E0DD
:1011F0002046611CCCB22E54012F07D0022F05D0FF
:10120000032F03D0062F01D0072F06D1F748C07A4D
:101210002146621CD4B268543BE0042F05D0052F50
:1012200003D0082F01D0092F33D1F148C07A2146CD
:10123000621CD4B268542CE0022E25D100230C99F4
:10124000481CC2B20C920D98405C03071B0F012F83
:1012500007D0022F05D0032F03D0062F01D0072F70
:1012600002D1E248C37209E0042F05D0052F03D054
:10127000082F01D0092F01D1DD48C372F221204689
:10128000621CD4B2295404E000262046611CCCB272
:101290002E547AE50C99481CC2B20C920D98465C0B
:1012A000012E01D0F22E2AD1062F01D0072F20D1F6
:1012B000F22E05D102202146621CD4B2685403E00C
:1012C0002046611CCCB22E54C848007E400120212B
:1012D0000840C649497E0901102211400843C3490C
:1012E000897E0907090F08432146621CD4B268545D
:1012F0003EE000202146621CD4B2685438E0022E41
:1013000031D100230C99481CC2B20C920D98435C59
:10131000012F07D0022F05D0032F03D0062F01D0B5
:10132000072F12D1202018404111B048017610201B
:1013300018400111AD4841761907090F8176F22155
:101340002046621CD4B229540CE0042F05D0052F8E
:1013500003D0082F01D0092F04D100212046621CA0
:10136000D4B2295404E000262046611CCCB22E548D
:101370000BE50C99481CC2B20C920D98465C012EEC
:1013800001D0F22E4AD1062F01D0072F40D10C995F
:10139000481CC2B20C920D98415C0B91F22E05D103
:1013A00002202146621CD4B2685403E02046611C2E
:1013B000CCB22E542146621CD4B20B9868540B99BF
:1013C0008A008A491C318858642124F06FFF00028A
:1013D000000E2146621CD4B268540B998A008349DE
:1013E0001C318858642124F061FF0004000E21465E
:1013F000621CD4B268540B998A007C491C3188580D
:10140000642124F053FF2146621CD4B2685450E09A
:1014100000202146621CD4B268544AE0022E43D117
:101420000C99481CC2B20C920D98415C0B910C991E
:10143000481CC2B20C920D98405C03040C99481CE5
:10144000C2B20C920D98405C01020B430C99481CEF
:10145000C2B20C920D98415C0B4364201946414383
:101460000B46012F07D0022F05D0032F03D0062FE4
:1014700001D0072F0AD10B9881005C481C304350E3
:10148000F2212046621CD4B229540CE0042F05D06E
:10149000052F03D0082F01D0092F04D100212046A9
:1014A000621CD4B2295404E000262046611CCCB250
:1014B0002E54D5E30C99481CC2B20C920D98465C90
:1014C000012E01D0F22E12D1F22E05D1022021469A
:1014D000621CD4B2685403E02046611CCCB22E5486
:1014E0004448407B2146621CD4B2685414E0022E6A
:1014F0000DD10C99481CC2B20C920D98405C3D492C
:101500004873F2202146621CD4B2685404E00026DD
:101510002046611CCCB22E54A2E302210B910C99FF
:10152000481CC2B20C920D98465C012E01D0F22EDE
:101530001AD1F22E05D102202146621CD4B2685481
:1015400003E02046611CCCB22E5402220AA92A488C
:10155000FFF740F9291908A8007A087008A8407A0E
:101560004870A01CC4B219E0022E12D10D9A0C983A
:10157000111802222048FFF745F90C98801CC1B2CF
:101580000C91F220214600E000E2621CD4B26854C3
:1015900004E000262046611CCCB22E5460E30421F6
:1015A0000B910C99481CC2B20C920D98465C012E0E
:1015B00001D0F22E22D1F22E05D102202146621C4A
:1015C000D4B2685403E02046611CCCB22E540422ED
:1015D0000AA908485B30FFF7FDF8281904220AA978
:1015E00024F080FD201DC4B220E00000B80C0020D3
:1015F000400F0020D00A0020A20A0020022E10D1A5
:101600000D9A0C9811180422FA48FFF7FBF80C9871
:10161000001DC1B20C91F2202146621CD4B2685464
:1016200004E000262046611CCCB22E5418E30C992D
:10163000481CC2B20C920D98465C012E01D0F22ECD
:1016400013D1F22E05D102202146621CD4B2685477
:1016500003E02046611CCCB22E54E6485B38007B88
:101660002146621CD4B2685415E0022E0ED10C99AA
:10167000481CC2B20C920D98405CDE495B3908737D
:10168000F2202146621CD4B2685404E000262046B1
:10169000611CCCB22E54E3E20C99481CC2B20C92ED
:1016A0000D98465C012E01D0F22E13D1F22E05D1F9
:1016B00002202146621CD4B2685403E02046611C1B
:1016C000CCB22E54CB485B38807D2146621CD4B20C
:1016D000685415E0022E0ED10C99481CC2B20C922F
:1016E0000D98405CC3495B398875F2202146621C25
:1016F000D4B2685404E000262046611CCCB22E54BB
:10170000AEE210210B910C99481CC2B20C920D98BC
:10171000465C012E01D0F22E1AD1F22E05D1022004
:101720002146621CD4B2685403E02046611CCCB24E
:101730002E54102207A9AF480930FFF74BF828199B
:10174000102207A924F0CEFC20461030C4B218E0C5
:10175000022E11D10D9A0C9811181022A5480930AB
:10176000FFF750F80C981030C1B20C91F2202146CE
:10177000621CD4B2685404E000262046611CCCB23E
:101780002E546DE210210B910C99481CC2B20C92A0
:101790000D98465C012E01D0F22E1AD1F22E05D101
:1017A00002202146621CD4B2685403E02046611C2A
:1017B000CCB22E54102207A98E482A30FFF70AF81F
:1017C0002819102207A924F08DFC20461030C4B23D
:1017D00018E0022E11D10D9A0C981118102285488C
:1017E0002A30FFF70FF80C981030C1B20C91F2209C
:1017F0002146621CD4B2685404E000262046611CD5
:10180000CCB22E542CE208210B910C99481CC2B288
:101810000C920D98465C012E01D0F22E1BD1F22EB7
:1018200005D102202146621CD4B2685403E0204650
:10183000611CCCB22E54082209A96E484338FEF729
:10184000C9FF2819082209A924F04CFC20460830B9
:10185000C4B219E005E2022E11D10D9A0C981118AC
:10186000082264484338FEF7CDFF0C980830C1B217
:101870000C91F2202146621CD4B2685404E0002688
:101880002046611CCCB22E54EAE108210B910C9940
:10189000481CC2B20C920D98465C012E01D0F22E6B
:1018A0001AD1F22E05D102202146621CD4B268540E
:1018B00003E02046611CCCB22E54082209A94D48F1
:1018C0001138FEF787FF2819082209A924F00AFC1D
:1018D00020460830C4B218E0022E11D10D9A0C989F
:1018E0001118082243481138FEF78CFF0C98083075
:1018F000C1B20C91F2202146621CD4B2685404E0BB
:1019000000262046611CCCB22E54A9E110210B9177
:101910000C99481CC2B20C920D98465C012E01D065
:10192000F22E1AD1F22E05D102202146621CD4B229
:10193000685403E02046611CCCB22E54102207A943
:101940002C483238FEF746FF2819102207A924F048
:10195000C9FB20461030C4B218E0022E11D10D9AF6
:101960000C981118102223483238FEF74BFF0C98C0
:101970001030C1B20C91F2202146621CD4B26854DE
:1019800004E000262046611CCCB22E5468E10C997C
:10199000481CC2B20C920D98465C012E01D0F22E6A
:1019A00013D1F22E05D102202146621CD4B2685414
:1019B00003E02046611CCCB22E540E485B38C07D3B
:1019C0002146621CD4B2685421E0022E1AD10C992F
:1019D000481CC2B20C920D98435C0E2B0CDA002B03
:1019E0000AD004485B38C375F2212046621CD4B289
:1019F000295406E02B0B002000262046611CCCB2A7
:101A00002E5404E000262046611CCCB22E5427E15F
:101A10000C99481CC2B20C920D98465C012E06D05F
:101A2000022E04D000262046611CCCB22E5417E1B1
:101A30000C99481CC2B20C920D98465C012E01D044
:101A4000F22E12D1F22E05D102202146621CD4B210
:101A5000685403E02046611CCCB22E54FE48C07A84
:101A60002146621CD4B2685414E0022E0DD10C99A8
:101A7000481CC2B20C920D98405CF749C872F22023
:101A80002146621CD4B2685404E000262046611C42
:101A9000CCB22E54E4E007210B910C99481CC2B241
:101AA0000C920D98465C012E01D0F22E13D1F22E2D
:101AB00005D102202146621CD4B2685403E02046BE
:101AC000611CCCB22E5428190722E44924F00AFBE9
:101AD000E01DC4B217E0022E10D10D9A0C98111817
:101AE0000722DE4824F0FEFA0C98C01DC1B20C910A
:101AF000F2202146621CD4B2685404E0002620463D
:101B0000611CCCB22E54ABE013210B910C99481CF4
:101B1000C2B20C920D98465C012E01D0F22E19D162
:101B2000132206A9CE48FEF755FEF22E05D102205B
:101B30002146621CD4B2685403E02046611CCCB23A
:101B40002E542819132206A924F0CCFA204613306B
:101B5000C4B20CE0022E05D100262046611CCCB296
:101B60002E5404E000262046611CCCB22E5477E0AF
:101B70000C99481CC2B20C920D98465C012E05D1FE
:101B800000262046611CCCB22E5431E0022E2AD110
:101B9000FEF7A8FDFEF7F2FD0F990D9824F008FB63
:101BA000224629460D9824F09DFA01210B911698A2
:101BB00001780A910AA80090A01EC2B22B460BA978
:101BC0000D98FEF73DFECC2108A8027A501CC3B246
:101BD0000A93A95408A8017A481CC2B20A926E540A
:101BE00008A8047A04E000262046611CCCB22E54DA
:101BF00036E00C99481CC2B20C920D98465C012E3E
:101C00000FD0022E08D1FEF7B9FDFEF76BFD20467E
:101C1000611CCCB22E5404E000262046611CCCB2DC
:101C20002E541DE000BF00BF00BF00BF00BFBFF3C8
:101C30004F8F00BF00BF00BF8A488B49C86000BFFC
:101C400000BF00BFBFF34F8F00BF00BF00BF00BF8A
:101C500000BFFDE700262046611CCCB22E5400BF19
:101C600000BF0F990C98884201DAFEF7F5FD002EAF
:101C700004D116980470002011B0F0BD16980470BD
:101C80000120F9E7FFB587B005460C4674E02178DE
:101C9000481C20706E5CD02E04D0D12E03D0D22EE2
:101CA00066D141E000BF00210491FF20013021F006
:101CB00045FC0746FF210131384624F079FA684691
:101CC000017C481CC2B204927E541098017811988D
:101CD000401E814217DA10980178481CC2B2109851
:101CE00002700A984654D02E0CD160480078012822
:101CF00008D104A83B46009021462846099AFEF7E1
:101D00009FFD00E000BF05976846017C0176022137
:101D100041760021C17605A9FF20013017F016FA9F
:101D2000384621F094FC26E014206946888004207F
:101D300021F004FC0390042101A80173D22103982F
:101D400001702178481C2070695C039841702178EB
:101D5000481C2070695C039881702178481C2070B1
:101D6000695C0398C17001A90320FEF7D5FB02E06E
:101D700000200BB0F0BD00BF21780998814286DBBE
:101D80000120F6E788B03A4814F097FD39481EF074
:101D900001F839481EF001F800221C2105201FF02F
:101DA000EAFC3649086008460068002802D172B68D
:101DB00000BFFEE708F07CFA00BF00235A1E01A90D
:101DC0002E4800681FF0B5FE01A808F092FAF4E76B
:101DD000417800290CD10178002904D0012903D0D1
:101DE000032903D101E002E001E000E000BF00BFF1
:101DF0000121234A1170704710B58EB004466078F7
:101E0000002801D00EB010BD2078002806D001288F
:101E100005D0022844D0032843D140E000BFA07C75
:101E2000012807D109206946088102A90320FEF78D
:101E300073FB00BF13480078002802D0E078002828
:101E40002CD1012168460184E18908A8C180A168DC
:101E50000B91E178017417E0D00A0020470A0020B6
:101E60004C9502080400FA0500ED00E05D0000203A
:101E7000F50400088B060008851C000850000020AF
:101E80005C000020F8040020217B0172207C41B21C
:101E900008A8017108A90320FEF73EFB02E001E05B
:101EA00000E000BF00BFFE480078012804D1FC48D4
:101EB0008089401CFA498881607B01287DD1207B84
:101EC00000287AD0E078012804D0022803D0E02846
:101ED00074D101E000BFB1E0F148007800283CD1A6
:101EE000207B042838D1A06800780128FAD1A068A6
:101EF00040780128F6D1A06880780128F2D1A06846
:101F0000C0780128EED10020E6490870E020E649BB
:101F100008700220E54908700020E1498881887333
:101F2000C873087401200870487002216846017562
:101F30000121017605A81DF0FEFBDD48007803288D
:101F400002D100201DF020FF0120400269460884D4
:101F500008A90320FEF7E0FA6EE0A0680078D049F7
:101F6000487008464078030026F0D3FE07052C3061
:101F7000363D515864000020CA4908700220CA4901
:101F800008701020C94908700020C5498881087070
:101F90000221684601750121017605A81DF0CBFBE1
:101FA000C3480078032802D101201DF0EDFEC1488E
:101FB0006946088408A9032001E040E03DE0FEF7FF
:101FC000ABFA38E00220B949087034E00120B54985
:101FD0000870B34948702EE00020B2490870012013
:101FE000AF49487027E0207BB04908700420B2490F
:101FF0000870012006E0A168095C491CAE4A115432
:10200000411CC8B2A94909788842F4DB13E00120D9
:102010006946087101A81DF05CFD0CE00020A04994
:102020000870A448401C6946088408A90320FEF7EC
:1020300073FA00E000BF00BF00E000BF00BF00BFB8
:10204000E0E610B586B004466078002842D12078DA
:10205000002804D0012806D0022839D126E001202A
:102060009649087035E08E480078012806D18C49E1
:102070008873207CC873607C087416E0152069465C
:102080000880032021F05AFA029003216846017368
:10209000022102980170217C02984170617C0298B3
:1020A000817069460320FEF737FA12E01620694670
:1020B0000880012021F042FA029001216846017354
:1020C0000D210298017069460320FEF725FA00E011
:1020D00000BF00BF01207949087006B010BD01465D
:1020E000022902D0E0293CD10CE0002004E00022CB
:1020F000714B1A54421CD0B21028F8DB10206B4AE6
:1021000010702FE06648807B012812D10020644ABD
:1021100090730320654A10700520674A107060486C
:10212000C07B50705E48007C907001205C4A50700B
:1021300016E05B484078012805D004280FD1012023
:10214000574A50700BE00220584A1070544880895A
:102150000012594A10705248007B507000BF00BFF7
:1021600000E000BF00BF70474D48007870470EB5D3
:1021700004206946087068461DF058FA019806F078
:1021800082FD4B481EF095FF4D48807D002801D010
:1021900002F07EF90EBD4B49087070473EB507202E
:1021A00043490870087203244548C07D012801D1C5
:1021B00000240AE04248C07D022801D1012404E045
:1021C0003F48C07D032800D10224002015E01421DF
:1021D00061433D4A891882008A58C30034490C3152
:1021E000CA505022C30059180A710022C300304956
:1021F0000C3159184A71411CC8B20428E7DB0F2181
:102200002B4888308180142060432F494018016991
:102210002E4801610B2101750521C1710121017059
:1022200002214170002181704021C1702021017183
:102230000021417181710172012141720521817278
:102240000121C172002101730721817600210176ED
:102250004176002006E0002283001C491C31CA5050
:10226000411CC8B21028F6DB114819F056FFFEF7E2
:1022700085FA002168460170022101711DF05BFAA8
:102280000321684601700020019068461DF053FA52
:102290000421684601701022002109485B3017E0D4
:1022A000F8040020560000205400002055000020B3
:1022B000B00B002001020000B80400205C000020E8
:1022C000D00A00205D000020289C0208B80C0020E5
:1022D00023F0F8FD019068461DF02DFA05216846AF
:1022E00001700A48019068461DF025FA06216846EB
:1022F00001700748019068461DF01DFA01216846EB
:10230000017001711DF017FA3EBD0000189C020813
:10231000089C020800B587B000200690002306AA9A
:102320006946C24800681FF004FD0698012806D1DE
:102330000698002803D001200007BD49486007B077
:1023400000BD10B5002218210A201FF014FAB74969
:10235000086001201FF084FBB64908607821B64868
:1023600023F028FF15F099FAB44815F093FA10BD40
:1023700086B000BF0024002500235A1E6946AB48E2
:1023800000681FF0D6FB00BF00235A1E1946A9485B
:1023900000681FF0CEFB012867D100BF5BE018206A
:1023A0006043A54940180079012809D118206043ED
:1023B00040188068401E182161439F4A8918886030
:1023C000182060439C4940188068002841D118209B
:1023D00060434018007901283BD1182060430E5813
:1023E00001251820604340184069002806D01820B5
:1023F00060430A4680184169304688471820604388
:102400008D494018007C012809D1182060434018EC
:10241000C16818206043884A8018816018E0002154
:1024200018206043844A801881601820604311504E
:10243000182060438018C160182060438018017420
:102440001820604380180171182060438018416192
:1024500000BF601CC4B2052CA1DB00231A4619463C
:10246000744800681FF055FA01E000BFFEE7012D37
:1024700015D1002410E0182060436F4940180079FE
:10248000012800D10AE0042C04D115F046FA0020FE
:102490006B490870601CC4B2052CECDB00BF69E717
:1024A000FFB587B006460D461746002403950495F0
:1024B000684607750196012101720A98069000236B
:1024C0008A1E19465B4800681FF033FB01282BD198
:1024D00000BF1EE0182060435749401800790028CB
:1024E00011D118216143544A8818182201A9FDF717
:1024F0008BFE53480078002804D115F009FA01201A
:102500004F49087007E0042C01D100BFFEE7601CB2
:10251000C4B2052CDEDB00BF00231A46194645482D
:1025200000681FF0F6F901E000BFFEE718206043E5
:10253000414940180BB0F0BD70B50446002C00D1E5
:1025400070BD00235A1E19463A4800681FF0F1FA80
:10255000012826D125460020A860E860287428605C
:1025600028716861002600BF10E0182070433249CE
:1025700040180079012800D10AE0042E04D115F09A
:10258000CCF900202E490870701CC6B2052EECDB79
:1025900000BF00231A461946264800681FF0B9F903
:1025A00001E000BFFEE70020CAE770B50446002C3A
:1025B00000D170BD00235A1E19461E4800681FF046
:1025C000B8FA012809D12646B56800231A461946EB
:1025D000184800681FF09DF901E000BFFEE728469B
:1025E000E7E770B50446002C00D170BD00235A1EE9
:1025F0001946104800681FF09CFA01280AD12546A8
:10260000E868A86000231A4619460A4800681FF0C7
:1026100080F901E000BFFEE70020E6E710B515F005
:1026200077F910BD10B515F078F910BD60000020E5
:1026300000ED00E0640000200C05002015230008D8
:102640006800002070B586B005460E461446684600
:10265000858186738089030026F05BFB05210407D2
:102660000506240000BF00BF1DE0616820680291DC
:1026700001906A46117A03A80172117A481C20F071
:102680005DFF04906A46127A511C049823F090FD75
:102690006B461A7A0199049823F024FD03E0206820
:1026A000049000E000BF00BF00231A4603A9F848C9
:1026B00000681FF02EF9012802D1002006B070BD7D
:1026C0000120FBE770B50546F248407801280DD19E
:1026D000284623F089FCC6B2002404E0295DED48B9
:1026E00014F066FF641CB442F8DB00BF70BD10B587
:1026F0000446E9A0FFF7E6FF01201FF05CFF00227F
:1027000011460120FFF79EFF10BDFEB504460D46A1
:10271000164668460480857000270088FF38023816
:10272000002803D130786946087100E000BF00BF7F
:1027300000231A466946D64800681FF0FAFA0128B5
:1027400008D1012F04D1002F02D00007DA494860D8
:102750000020FEBD0120FCE710B5D8480068002825
:102760000CD1D7480068002808D10120D44908605E
:1027700000221146FF200330FFF7C7FF10BD10B540
:10278000D0480078002811D1CE4806F0A2FACD48F2
:1027900000787D22D20050430146CB4B0022C7482F
:1027A0000068FFF77DFEC549086003E0C348006884
:1027B000FFF717FF10BD37B505460C46002C06D1B4
:1027C00002AA2946FF200130FFF79FFF07E0012CF6
:1027D00005D102AA2946FF200230FFF796FF3EBD31
:1027E0001CB504460094204623F0FEFB69460871A0
:1027F0006A4600210220FFF725FF1CBD86B0542247
:10280000B249A448FDF700FD5422B149A148543013
:10281000FDF7FAFC00209F49487000219D48543084
:102820004170AC4814F0A5FE00220C210F201EF0D0
:10283000A2FF9749086008460068002802D172B6D6
:1028400000BFFEE700BF00235A1E03A9904800689E
:102850001FF06FF96846808904287AD008DC0028C8
:102860000FD0012876D0022875D0032874D176E2E3
:10287000FF380138002870D001286FD00228F5D128
:1028800087E290480078002805D0934813F02BFF8A
:102890000020914948809149049808606846807BEF
:1028A000542148437B494018806B002811D1C42033
:1028B00020F044FE8A4908606946897B54225143CE
:1028C000744A891808463430C4228549096815F0CD
:1028D0000AFB6846807B542148436E494018406C8F
:1028E000002813D1FF20F53020F028FE7D49086034
:1028F0006946897B54225143664A8918084640300C
:10290000FF22F5327749096815F0EDFA6846807BB9
:10291000012824D1801E00906A460190917B0A46CE
:1029200054235A435B4BD0180323022214F0E3FCD8
:102930000020009001906A460290917B54225143FE
:10294000544A881800234B22D201022114F01AFDA8
:1029500027E011E23EE0C0E13EE298E1D4E06846C3
:10296000807B00281DD1401E00906A460190917B1B
:102970000A4654235A43474BD0180A23092214F01D
:10298000BAFC0020009001906A460290917B54228C
:102990005143404A8818002350490A68022114F024
:1029A000F1FC01216846807B54225043394A80184B
:1029B000417000216846807B54225043354A80187C
:1029C000403001743E480068012802D146A0FFF75C
:1029D00007FF02E26946897B542251432D4A881839
:1029E00014F080FD6946887B5421484329494018EA
:1029F000806B002810D06946897B54225143254AB8
:102A00008918886B20F023FE00226946887B5421B8
:102A100048432049401882636846807B54214843DC
:102A20001C494018406C002810D06946897B54220C
:102A30005143184A8918486C20F009FE0022694663
:102A4000887B54214843134940184264002168465A
:102A5000807B542250430F4A8018417019480078F7
:102A600000280FD000200221034602460091019069
:102A70000A21194813F0F2FC224B022201211648C8
:102A800013F096FD00200D4908600D490860A4E18F
:102A9000A0000020C00600200D0A456E746572205B
:102AA000506F77657220536176696E67204D6F6451
:102AB00065210D0A0D0A000000ED00E0A4000020D1
:102AC000A8000020B4000020EF260008180600200F
:102AD0006C060020B727000868070020B00000201F
:102AE000980000209C0000200D0A45786974205051
:102AF0006F77657220536176696E67204D6F6465EC
:102B0000210D0A005927000869460C7CB34800686B
:102B1000FFF767FD6946897B54225143B04A891803
:102B20000846403015F01EFA00280AD16946897B14
:102B300054225143AA4A891808464030214615F0CC
:102B4000D8F96846807B54214843A5494018403055
:102B5000007C01285FD1082C01D07F2C3BD1694635
:102B6000897B542251439E4A89180846403015F00B
:102B7000DFF96946897B54225143994A89180846EE
:102B8000403015F0E6F9002845D16946897B54228A
:102B90005143934A89180846403015F0C9F96946EF
:102BA000897B542251438E4A8818082114F000FD75
:102BB0006946897B54225143894A8818202114F0A0
:102BC000F7FC6946897B54225143854A88180821BD
:102BD00014F0EEFC1FE00A2C01D00D2C12D1694636
:102BE000897B542251437E4A88180A2114F0E0FC64
:102BF0006946897B54225143794A88180D2114F083
:102C0000D7FC08E06946897B54225143744A8818EE
:102C1000214614F0CDFC0A2C01D00D2C36D1002514
:102C2000FF20F63020F08AFC0090FF21F63100985A
:102C300023F0BEFA0DE06946897B54225143684A6D
:102C400089180846403015F060F900994855681C0D
:102C500085B26946897B54225143614A89180846E6
:102C6000403015F076F90028E5D0002D0ADD681E09
:102C700080B2054601906846817B01726946012059
:102C8000FDF74AFC009820F0E2FC00BFA5E0694691
:102C9000897B54225143524A89180846343015F032
:102CA00058F9002814D16946897B542251434C4A73
:102CB00089180846343015F028F904466946897B9E
:102CC00054225143464A8818214614F055FC03E02B
:102CD00000210220FDF720FC7FE06846807B542124
:102CE00048433F4940184078012834D100240DE082
:102CF000049A115D6A46927B54235A43384BD2188A
:102D00001046343015F0F5F8601CC4B203A8007A00
:102D1000A042EDDC6946897B54225143304A891830
:102D20000846343015F015F9002814D16946897B1E
:102D3000542251432A4A89180846343015F0E5F8E0
:102D400005466946897B54225143254A88182946FD
:102D500014F012FC00BF049820F079FC3DE0012043
:102D60002049087001216846807B542250431C4A48
:102D700080184030017430E000201A4908700021AA
:102D80006846807B54225043154A801840300174B5
:102D900023E0154A00210846FFF754FC114800784B
:102DA000002805D0002211460320FFF74BFC04E069
:102DB000002211460420FFF745FC0C4800787D22D4
:102DC000D200504301460A4B002204480068FFF736
:102DD00067FB0249086000E000BF34E5A400002062
:102DE000C0060020AC000020B0000020B40000208D
:102DF000EF2600083EB50446002069460870FB48EF
:102E0000C07D042807D0F948C07D082803D0F748C2
:102E1000C07D092804D1F64840786946087103E06E
:102E2000F44840786946087168461CF084FC3EBD51
:102E300007B56846C088F049C880002048816846C8
:102E4000008908810521EC48401C23F0B1F90422D7
:102E500000A90131E848401C23F044F90EBD10B52B
:102E6000E648806A002805D0E449886AFFF764FBD9
:102E7000E249886210BD10B5DC48407A002803D1D1
:102E8000DF4814F027FE02E0DE4814F023FED748A6
:102E9000807A012805D1D548407A002801D1FFF772
:102EA0006EFC0121D8A003F04AFED8480068002833
:102EB00005D0D6480068FFF73FFBD4490860D44BE3
:102EC0000022FF21F531D1480068FFF7E9FACF4928
:102ED000086010BD7047F0B5A7B00646344620889C
:102EE000002804D0012844D003287BD163E0606827
:102EF000072802D00A2839D12CE00020BF49C86138
:102F0000012020A9087424A81CF090FB0546002D80
:102F100017D120A8007D012810D1FFF728F9BDA006
:102F2000FFF75EFCB148407A002803D1B44814F0A2
:102F3000D1FD0EE0B34814F0CDFD0AE005F058FFD6
:102F400007E0BB4B0022BB490720FFF7A9FAAB49BA
:102F5000C8610CE0FF20073020A988800020A74925
:102F6000886221A90320FDF7D7FA00E000BF00BF67
:102F700011E2A568002025902690681C20F0DEFA5A
:102F80000746691C384623F013F92A46384661681B
:102F900023F0A8F8606820F05AFB269720A8C58285
:102FA00000218182002D02D025A814F0EDFD3846C5
:102FB00020F04DFBEFE11822211D21A8FDF724F997
:102FC00020A88188FF220332881A91425BD00FDC4F
:102FD000092942D007DC002911D001292ED002296D
:102FE00011D11FE0D6E10F293BD01129F8D143E0E0
:102FF000030025F08EFE06087D498EF9F8088E48FC
:103000000078002800D1C3E105F09DFD8BA0FFF7FB
:10301000E7FB00218DA003F092FD01217AA003F0CF
:103020008EFDB5E18AA0FFF7DBFB002187A003F04E
:1030300086FD012174A003F082FDA9E122A805F01C
:10304000ACFD21A8C068002806D021A9C86820F0DE
:10305000FEFA002121A8C1609AE182A0FFF7C0FB1F
:1030600096E1FFF784F86BA0FFF7BAFB01207249E5
:103070000870072027B0F0BD80A0FFF7B1FB00204B
:103080006D49087084E100BF5B48C088002806D104
:1030900088A0FFF7A5FB002005F018FE78E1564850
:1030A000C088401E5449C88000201E901F90209068
:1030B0000846C088002808D18CA000681E90042211
:1030C000491C1FA823F00EF808E08AA000681E9093
:1030D00004224949491C1FA823F004F8202018A9FC
:1030E00008751EA81C901CA9844816F02FF84FE103
:1030F000002041494881084600897D22D200504382
:1031000001464B4B00220A20FFF7CAF93B4988626F
:103110003EE121A8C56804223749491C281D22F038
:1031200085FF002803D0284620F091FA30E10422E0
:1031300070A1284622F07AFF002805D12E48408948
:10314000401C2D49488114E0042268A1284622F041
:103150006DFF00280DD128484089401C2649488130
:10316000FF20083010A9888113A90320FDF7D4F9A6
:1031700000BF284620F06BFA20AA0820105623F042
:10318000A5FF139023F03CFF00225D4B1591149096
:1031900023F026FB1791169023F038F9074638469E
:1031A00023F02EFF0022574B1791169026F036F889
:1031B00000D2554F384623F023FF16901791019106
:1031C000009021A80622825E50A119A822F0E0FCFE
:1031D000094948890A2123F073F8002902D119A866
:1031E000FFF7FEFAD4E09FE09FE00000D00A002045
:1031F000400F0020B80C00200808002080040020A8
:10320000449F02080CA1020850413300E400002052
:10321000F52D00084F7665722D7468652D41697231
:103220002041637469766174696F6E0D0A00000055
:103230007F06000810270000E20000205261646948
:103240006F20547820446F6E650D0A0050413200A3
:10325000526164696F2054782054696D656F75748C
:103260000D0A0000526164696F2054782052656332
:1032700065697665642041636B0D0A005374617261
:1032800074204A6F696E206E6574776F726B3A2096
:103290004F5441412C20506C656173652077616902
:1032A0007420666F722061637469766174696E67F9
:1032B0000D0A00005061636B65747320616C726568
:1032C000616479207472616E736D69747465642CC5
:1032D000206E6F77206C656176696E672054585058
:1032E00050206D6F64652E0A0D000000444F4E455E
:1032F0000000000050494E47000000000603000097
:1033000000001040000034C00000A0C152535349D7
:10331000203D202534642C20534E52203D20252E64
:1033200031660A0D0000000000BF20A88088FF2140
:103330000731884207D119480389428918A101A899
:1033400022F026FC18E02549886AFFF72EF9074687
:103350007D21C90022F0AAFF104909890D1A0F48E2
:1033600042892B461E4901A822F012FC1B49886A9B
:10337000FFF7E2F81949886201A8FFF731FA002146
:103380006120C00015F0E2FE002005F09FFC00BFA8
:1033900000BF00E000BF00BF0B206BE60808002064
:1033A0002564207061636B65747320726563656961
:1033B00076656420696E202564207365636F6E6492
:1033C000732C206E6F77206C656176696E67205470
:1033D000585050206D6F64652E0A0D008004002047
:1033E00044BE020800BF00BF00BFBFF34F8F00BF45
:1033F00000BF00BFF948FA49C86000BF00BF00BF66
:10340000BFF34F8F00BF00BF00BF00BF00BFFDE78D
:10341000F0B595B005460026284614F028FC07466E
:10342000022F04D0032F10D0042F6DD109E0ED48F6
:10343000427AEDA1684622F0ABFB6846FFF7D0F96F
:1034400064E0ECA0FFF7CCF960E00A2214A928465A
:1034500014F0A4FC0446012C01D0012656E010A86B
:10346000007C002830D1DF48407A01282CD1002090
:10347000DC4948720846807D002807D1E148006891
:10348000002803D1E04814F025FB3CE0D548807DBE
:10349000012815D1D3485B3022F0A6FD00280BD0BF
:1034A000D048643022F0A0FD002805D0CD488530FA
:1034B00022F09AFD002803D1D34814F00BFB22E040
:1034C000D24814F007FB1EE010A8007C012818D198
:1034D000102210A9284614F0B3FC0446012C06D192
:1034E000102210A9CA4822F0A1FD002801D001260F
:1034F0000CE010A8007CBB494872C64814F0EAFAF8
:1035000001E0012602E001E0012600BF00BF3046D5
:1035100015B0F0BDF0B595B004460025204614F076
:10352000A6FB0646022E04D0032E0FD0042E2BD16C
:1035300008E0B74AB8A101A822F02AFB01A8FFF7CA
:103540004FF923E0B8A0FFF74BF91FE0102211A9B3
:10355000204614F050FC0746012F09D111A822F093
:1035600043FD102804D811A822F03EFD082801D2FE
:1035700001250BE01021A64822F01AFE102211A905
:10358000A34822F0AFFD01E0012500BF00BF28469F
:1035900015B0F0BDF0B595B005460026284614F0EC
:1035A00066FB0746022F04D0032F10D0042F35D11D
:1035B00009E08C48027AACA101A822F0E9FA01A83E
:1035C000FFF70EF92CE0ABA0FFF70AF928E06888B6
:1035D000092803D00126304615B0F0BD0A2214A9EF
:1035E000284614F0DBFB0446012C15D11498022860
:1035F00012D27C49149808720846007A002805D136
:10360000002211460420FFF71DF806E000221146B3
:103610000320FFF717F800E0012601E0012600BFB4
:1036200000BF3046D8E7F0B595B0054600262846DD
:1036300014F01DFB0746022F04D0032F10D0042FD7
:1036400030D109E08F48C2798FA101A822F0A0FAF9
:1036500001A8FFF7C5F827E08EA0FFF7C1F823E027
:103660006888092803D00126304615B0F0BD0A222B
:1036700014A9284614F092FB0446012C10D114988A
:1036800002280DD27F491498C8710846C0790028D5
:1036900002D112F094FD04E0012012F090FD00E050
:1036A000012601E0012600BF00BF3046DDE700B57E
:1036B00001460B0025F02DFB061404070A0D10131C
:1036C0004B20C00100BD4B200002FBE74B20400215
:1036D000F8E7E1200002F5E7E1204002F2E700BF51
:1036E0004B20C001EEE7F0B595B0054600201490E0
:1036F0000026284614F0BBFA0746022F04D0032FF9
:1037000010D0042F3CD109E03648C27965A1684643
:1037100022F03EFA6846FFF763F833E064A0FFF753
:103720005FF82FE00A2214A9284614F037FB04465C
:10373000012C02D11498052801D9012622E029493B
:103740001498C871C879FFF7B2FF13900022114690
:103750000120FEF777FF13AA00210846FEF772FF4B
:103760002048007A002805D1002211460420FEF7E7
:1037700069FF04E0002211460320FEF763FF01E029
:10378000012600BF00BF304615B0F0BD70B596B041
:1037900004460025204614F06AFA0646022E13D08D
:1037A000042E1AD10F48407A002801D10125BBE030
:1037B00043A048A34AA24DA1009002A822F0E8F934
:1037C00002A8FFF70DF8AFE0514A52A102A822F07B
:1037D000DFF902A8FFF704F8A6E0A3E00400FA0569
:1037E00000ED00E0D00A00202B4741444D3A25640B
:1037F0000D0A00002B4741444D3D3C302D313E0D1C
:103800000A0000002401002048A4020800A60208C3
:10381000BE0A0020C8A702082B474350573A22256A
:1038200073220D0A000000002B474350573D2250E1
:10383000617373776F7264206C656E677468206D56
:10384000757374206265206D6F7265207468616E97
:10385000203720616E64206C657373207468616E1C
:10386000203136220D0A00002B4543484F3A25648B
:103870000D0A00002B4543484F3D3C302D313E0D95
:103880000A000000780B00202B435041453A256484
:103890000D0A00002B435041453D3C302D313E0D7B
:1038A0000A0000002B4942523A25640D0A0000002C
:1038B0002B4942523D3C302D353E0D0A00000000A0
:1038C0004F6E204C4F575F504F5745525F4D4F44FE
:1038D0004500000031343A32363A323600000000FA
:1038E0004D61722032362032303139002B52656CF6
:1038F0006561736520446174653A2025732C2054FA
:10390000696D653A2025730D0A25730D0A000000C4
:1039100034A302082B53474D523A222573220D0A35
:1039200000000000012500BF00BF284616B070BD92
:1039300070B594B004460025204614F098F9064668
:10394000022E08D1F74AF8A1684622F021F968460C
:10395000FEF746FF01E0012500BF00BF284614B076
:1039600070BD70B594B004460025204614F07FF970
:103970000646022E08D1F04AF0A1684622F008F966
:103980006846FEF72DFF01E0012500BF00BF284675
:1039900014B070BD70B594B004460025204614F0F4
:1039A00066F90646022E08D1E84AE9A1684622F0E7
:1039B000EFF86846FEF714FF01E0012500BF00BFE5
:1039C000284614B070BD70B594B00446002520465A
:1039D00014F04DF90646022E02D0042E10D10BE051
:1039E000D04B603B1A461032DDA1684622F0D0F879
:1039F0006846FEF7F5FE05E0DEA0FEF7F1FE01E009
:103A0000012500BF00BF284614B070BDF0B595B0C9
:103A100005460026284614F02AF90746022F04D04E
:103A2000032F11D0042F41D10AE0DD48438A828A56
:103A3000DCA101A822F0ACF801A8FEF7D1FE37E026
:103A4000DCA0FEF7CDFE33E00A2213A9284614F0CD
:103A5000A5F90446012C05D110A880892D21490122
:103A6000884201DD012623E00A2214A9284614F029
:103A700095F90446012C12D110A8008AFF216E315D
:103A8000884201DD012613E010A88089002806D1B4
:103A900010A8008AC24948820020888208E00020DD
:103AA000BF49488210A88089888201E0012600BFB2
:103AB00000BF304615B0F0BDF0B595B00446002506
:103AC000204614F0D4F80646022E04D0032E10D05F
:103AD000042E21D109E0B248827BC4A101A822F0C2
:103AE00057F801A8FEF77CFE18E0C3A0FEF778FEA9
:103AF00014E00A2214A9204614F050F90746012FB9
:103B000003D110A8007C012801DD012506E010A8E2
:103B1000007CA349887301E0012500BF00BF28464F
:103B200015B0F0BDF1B588B0002006900590049066
:103B300011F05EFF089811F079FF0590B24811F07E
:103B400075FF0490049823F0F2F801910090059815
:103B500023F0EDF80446AD4AAD4B23F02DF90646AF
:103B6000019B009A22F03CFE0391029022F04EFC51
:103B70000690A849069825F0FDFB044623F06AFA52
:103B8000C0B209B0F0BD70B586B0054600240AE0A9
:103B900006216143A04A8818294622F043FB0028E9
:103BA00000D102E0641C0F2CF2D300BF0F2C06D012
:103BB00006206043984940184079002802D102202D
:103BC00006B070BD002002210091019006206043E4
:103BD000914A80180521415600231A4603A812F085
:103BE0003DFC03A812F092FDC6B2002000900190A7
:103BF00006206043884A801805214156002303228D
:103C000003A812F02BFC3046DAE7F1B59EB0002095
:103C10001D901E9814F02BF81C901C98022802D0BE
:103C2000042842D13DE07D48FFF77CFF04467C48F4
:103C3000FFF778FF05467BA0FFF7A5FF06467BA0B0
:103C4000FFF7A1FF07467BA0FFF79DFF07907AA033
:103C5000FFF799FF069079A0FFF795FF019702966D
:103C60000395049405900798009075A108A8069BF9
:103C7000059A21F08DFF08A8FEF7B2FD4848807A2A
:103C800001280DD14648407A002809D10221034677
:103C9000024600910190172105A812F0DFFB00BF3A
:103CA00006E06F48FEF79CFD02E001201D9000BF7A
:103CB00000BF1D981FB0F0BDF0B595B004460025BB
:103CC000204613F0D4FF0646022E04D0032E10D057
:103CD000042E25D109E06348027A63A101A821F0EE
:103CE00057FF01A8FEF77CFDDAE063A0FEF778FD40
:103CF000D6E00A2214A9204614F050F80746012FF6
:103D000003D110A8007CFF2801DD0125C8E010A820
:103D1000007C002805D12249887252490872BCE013
:103D2000BCE0B3E0A70A00202B534C4D523A2225A9
:103D300073220D0A000000004CA302082B53474DCC
:103D4000493A222573220D0A0000000047A3020809
:103D50002B53474D4D3A222573220D0A00000000D7
:103D60002B53474D443A222573222C222573220DD2
:103D70000A0000002B53474D443D224D41433A6C0D
:103D8000656E6774682069732038222C22534E3A7E
:103D90006C656E677468206973203133220D0A00E8
:103DA000D00A00202B5354494D45523A25642C2506
:103DB000640D0A002B5354494D45523D3C76616CCD
:103DC000206F66206D696E757465733A20312D31F0
:103DD0003434303E2C3C76616C206F66206461790F
:103DE000733A312D3336353E0D0A00002B534952BC
:103DF000513A25640D0A00002B534952513D3C3085
:103E00002D313E0D0A0000000000024451DA1B7CF7
:103E10006132F33F00002041EBA3020800020024BE
:103E2000000100205041313200000000504131318A
:103E30000000000050423800504237005042360027
:103E40002B534750494F3A25642C25642C25642C6C
:103E500025642C25642C25642C25640D0A000000A3
:103E6000F8BE0208780B00202B5350574D4F443AB0
:103E700025640D0A000000002B5350574D4F443D60
:103E80003C302D3235353E0D0A0000000120FD4941
:103E9000887210A8007CFC49087201E0012500BF6F
:103EA00000BF284615B0F0BD70B596B00446002599
:103EB000204613F0DCFE0646022E2DD10020019094
:103EC000F048807D002807D1F0480068020EF0A17C
:103ED00002A821F05DFE1BE0EA48807D01280CD19C
:103EE000E8484330027E69460A71407E487101AA63
:103EF000EBA102A821F04CFE0AE0ED48C27D694624
:103F00000A71007E487101AAE5A102A821F040FED5
:103F100002A8FEF765FC01E0012500BF00BF2846AE
:103F200016B070BD70B594B004460025204613F05D
:103F30009EFE0646022E09D1DD4A6232DDA16846A8
:103F400021F026FE6846FEF74BFC01E0012500BF8C
:103F500000BF284614B070BDF1B586B000200590B2
:103F6000069813F084FE04900498022870D1D44B74
:103F70001A681B1D0BCB01AC0BC4009200266846CF
:103F8000FEF7A0FBCF481DF094F8BE48C07D042882
:103F900007D0BC48C07D082803D0BA48C07D092896
:103FA00054D1B848C07D042803D0B648C07D082845
:103FB00001D1482500E06025002444E0E217120FFB
:103FC000121912115300C04AD25A2046E3171B0F90
:103FD0001B181B111B01E71A0123BB401A40002AC2
:103FE00000D12FE0002020F028FAE200B5490C3182
:103FF000885820F08DFA12210E2020F079F9022144
:10400000122020F075F90221132020F071F905200B
:1040100020F0F3F902201EF0CEFA002020F02EFB53
:10402000064620F022FB00200090019002900390B1
:1040300033462246A5A1684621F0AAFD6846FEF750
:1040400041FB00BF641CAC42B8DB45E0002441E00A
:1040500043E02046E117090F091809110901621A06
:1040600001219140974A883292881140002900D15D
:104070002FE0002020F0E1F9E20092490C3188584D
:1040800020F046FA12210E2020F032F902211220EF
:1040900020F02EF90221132020F02AF9052020F02B
:1040A000ACF902201EF087FA002020F0E7FA06465D
:1040B00020F0DBFA0020009001900290039033463C
:1040C000224682A1684621F063FD6846FEF7FAFAAF
:1040D00000BF641C102CBCDB02E00120059000BF77
:1040E00000BF059807B0F0BDF8B506460C4615466A
:1040F00000200090002C0AD022466946304621F06C
:10410000A9FE00980078002801D00020F8BD002DFD
:1041100006D0304621F068FFA84201D00020F5E724
:104120000120F3E7F0B595B004460025204613F0D2
:104130009EFD0646022E04D0032E10D0042E26D15A
:1041400009E0504A4A3263A101A821F021FD01A8EB
:10415000FEF746FB1DE063A0FEF742FB19E01122CB
:1041600010A9204613F06CFE0746012F06D110223D
:10417000114610A8FFF7B8FF002801D1012508E07B
:10418000112210A93F484A3021F0ACFF01E001257F
:1041900000BF00BF284615B0F0BDF0B595B004468D
:1041A0000025204613F063FD0646022E04D0032EA0
:1041B00010D0042E26D109E0324A183252A101A8AB
:1041C00021F0E6FC01A8FEF70BFB1DE052A0FEF774
:1041D00007FB19E0112210A9204613F031FE074613
:1041E000012F06D11022114610A8FFF77DFF0028ED
:1041F00001D1012508E0112210A92248183021F030
:1042000071FF01E0012500BF00BF284615B0F0BDD9
:10421000F0B595B004460025204613F028FD06466B
:10422000022E04D0032E1AD0042E29D113E010221E
:104230001449293101A813F00EFF102101A814F030
:104240001EFC07463A463DA105A821F0A1FC05A8A1
:10425000FEF7C6FA94E03DA0FEF7C2FA90E02122F4
:104260000CA9204613F0ECFD0746012F06D12022B1
:1042700010210CA8FFF738FF002879D101257FE035
:104280007CE075E0D00A0020780B0020240100209B
:104290002B435349443A2225303258220D0A00005C
:1042A0002B435349443A222573220D0A0000000093
:1042B000400A00202B4350494E3A25730D0A000056
:1042C000F0A90208B00B0020BC0E002025643A259E
:1042D000640D0A002B434150504555493A25730D52
:1042E0000A0000002B434150504555493D3C417068
:1042F000704555493A6C656E677468206973203162
:10430000363E0D0A000000002B43444556455549F2
:104310003A25730D0A0000002B4344455645554984
:104320003D3C4465764555493A6C656E6774682036
:1043300069732031363E0D0A000000002B434150C6
:10434000504B45593A253032580D0A002B43415005
:10435000504B45593D3C4170704B65793A6C656EE8
:104360006774682069732033323E0D0A0000000034
:1043700021220CA9FB4821F0B5FE01E0012500BF78
:1043800000BF284615B0F0BDF0B595B00546002633
:10439000284613F06CFC0746022F04D0032F17D0D9
:1043A000042F4ED140E0EF482938807D022805D106
:1043B000ED4AEEA101A821F0EBFB05E0E94A32321B
:1043C000F6A101A821F0E4FB01A8FEF709FA3AE002
:1043D000E4482938807D022801D1012633E00922F2
:1043E00012A9284613F02CFD0446012C06D1082200
:1043F000102112A8FFF778FE002801D1012622E043
:10440000092212A9D748323021F06CFE2121D5486B
:104410005C3021F0CDFE2121D2483B3021F0C8FE96
:10442000E948FEF7DDF90EE0CE482938807D022804
:1044300003D1E6A0FEF7D4F902E0EFA0FEF7D0F931
:1044400001E0012600BF00BF304615B0F0BD70B5D9
:1044500094B004460025204613F009FC0646022EBF
:1044600002D0042E0ED109E0EE48EFA102686846A2
:1044700021F08EFB6846FEF7B3F905E0EEA0FEF7EB
:10448000AFF901E0012500BF00BF284614B070BDA0
:1044900010B50124B3482938C07D042836D0B1486E
:1044A0002938C07D062831D0AE482938C07D032880
:1044B0002CD0AC482938C07D022827D0A9482938FB
:1044C000C07D012822D0A7482938C07D07281DD0EB
:1044D000A4482938C07D082818D0A2482938C07DB2
:1044E000092813D09F482938C07D0B280ED09D483D
:1044F0002938C07D0A2809D09A482938C07D0C285F
:1045000004D098482938C07D0D2807D13B221201DC
:10451000D349D44811F007FF044600E00024002CE2
:1045200001D1002010BD0120FCE7F0B585B00446A4
:10453000032C77D1CA4908700021CB484170032071
:10454000C7490872002723E0384622F0F0FB0546F1
:104550000022C64B22F030FC0D221207C44B019101
:10456000009022F00DF90391029022F093FB024695
:10457000F900BB480C3042505022F9000818027173
:104580000122F900B6480C3008184271781CC7B2F5
:10459000032FD9DB03200EE00022C300B0490C3109
:1045A000CA50C30059180A71C300AD490C315918DB
:1045B0004A71411CC8B21028EEDB0721AA48803896
:1045C000818068482938817DA748017000214170A9
:1045D000012181704021C1702021017101214171AF
:1045E00000218171C1710172012141720521817225
:1045F0000121C172002101739E49016100210175F1
:1046000005218176002101764176002006E0002216
:10461000830095491C31CA50411CC8B21028F6DBF2
:104620001AE3FFE7042C7DD104208D490870002196
:104630009148417004208A490872002723E03846D7
:1046400022F075FB0022894B0191009022F0B4FB0F
:1046500005460B221207894B22F092F80391029033
:1046600022F018FB0246F9007D480C3042503022FF
:10467000F900081802710022F90079480C30081876
:104680004271781CC7B2402FD9DB402724E038465E
:10469000403822F044FB05460022794B22F08CFB87
:1046A00007225207774B0191009022F069F803919D
:1046B000029022F0EFFA0246F90069480C304250AD
:1046C0004422F900081802710022F90064480C30F5
:1046D00008184271781CC7B2482FD8DB0021C943A3
:1046E0006548883881800021001D41808180C1801B
:1046F000018141811B482938817D5F48083801725A
:10470000002108304170012181704021C1702021B9
:104710000171002141718171C17105210172012175
:10472000417200E00FE0052181720121C172002178
:10473000017355490161082101750D218176002120
:10474000017641766CE7062C0AD1062044490870B0
:104750000021454841700620414908720027B6E013
:10476000FAE00000F90A0020570A00202B434445D4
:1047700056414444523A257320284465766963655E
:104780002061646472657373206F662047494F54DB
:10479000206D6F6465290D0A000000002B4344451D
:1047A00056414444523A257320284465766963652E
:1047B0002061646472657373206F662041425020EB
:1047C0006D6F6465290D0A0098BE02082B434445AD
:1047D00056414444523D3C446576696365206164BA
:1047E0006472657373206F662047494F54206D6F64
:1047F00064653E0D0A0000002B4344455641444485
:10480000523D3C44657669636520616464726573FA
:1048100073206F6620414250206D6F64653E0D0A23
:1048200000000000240100202B434445564D493A26
:10483000253038580D0A00002B434445564D493D5C
:104840003C446576696365206164647265737320B6
:104850006F66204F544141206D6F64653E0D0A0024
:10486000B00B002000020808B80C0020006A0841C4
:1048700013DFC94108E6D333400F002000E4CA41EA
:10488000006A384157E9CA41A0700837384622F01B
:104890004EFA05460022F94B22F08EFA0022F84B20
:1048A0000191009021F06CFF0391029022F0F2F947
:1048B0000246F900F34842505022F90008180271EC
:1048C0000022F900EF4808184271781CC7B2022F85
:1048D000DCDB02200CE00022C300EA49CA50C3001E
:1048E00059180A71C300E74959184A71411CC8B2E6
:1048F0001028F0DB0321E3487C308180E248817D91
:10490000E048FC300170002141700121817040219C
:10491000C17020210171002141718171C171017249
:1049200001214172052181720121C17200210173AF
:10493000D6490161022101750521817600210176A8
:104940004176002005E000228300D149CA50411C75
:10495000C8B21028F7DB72E3072C7DD10720C949C4
:104960000C3908700021CA481C3841700720C5491D
:104970000C390872002721E0384622F0D8F90546A4
:104980000022C44B22F018FA3D229206C24B01913C
:10499000009021F0F5FE0391029022F07BF902468F
:1049A000F900B84842505022F9000818027100225C
:1049B000F900B44808184271781CC7B2082FDBDB35
:1049C000082722E03846083822F0A9F905460022D7
:1049D000B04B22F0F1F931229206B04B01910090D8
:1049E00021F0CEFE0391029022F054F90246F90024
:1049F000A44842505022F900081802710022F90020
:104A0000A04808184271781CC7B2102FDADB0021C9
:104A1000C9439C487C3081809B48817D9C481C38E0
:104A2000017000214170012181704021C17020215D
:104A30000171002141718171C171017201214172C5
:104A4000052181720121C172002101739449016124
:104A50000A210175072100E00EE081760021017630
:104A60004176002005E0002283008949CA50411C9C
:104A7000C8B21028F7DBE2E2082C7DD1082081497A
:104A80000C39087000218748417008207D490C3995
:104A90000872002720E0384622F049F90546002236
:104AA000764B22F089F900227F4B0191009021F092
:104AB00067FE0391029022F0EDF80246F90071487A
:104AC00042505022F900081802710022F9006D4886
:104AD00008184271781CC7B2402FDCDB402722E067
:104AE0003846403822F01BF90022704B01910090AB
:104AF00022F062F90546032212076D4B21F040FEB9
:104B00000391029022F0C6F80246F9005D48425037
:104B10006622F900081802710022F90059480818A5
:104B20004271781CC7B2482FDADB0021C9435D48C7
:104B3000883881800021001D41808180C1800181F1
:104B400041815148817D5748083801720021083061
:104B50004170012181704021C1702021017100212B
:104B600041718171C17105210172012141720521DB
:104B700081720121C17200E00BE0002101734D49F7
:104B80000161082101750D218176002101764176B0
:104B900055E2092C61D109203A490C3908700021ED
:104BA00040484170092037490C390872002721E03C
:104BB000384622F0BCF805460022304B22F0FCF8C3
:104BC000032252073C4B0191009021F0D9FD039143
:104BD000029022F05FF80246F9002A484250502223
:104BE000F900081802710022F900264808184271DD
:104BF000781CC7B2602FDBDB0021C9432948883805
:104C000081800021001D41808180C180018141811E
:104C10001D48817D23480838017200210830417009
:104C2000012181704021C170202101710021417159
:104C30008171C171017201214172052181720121CD
:104C4000C172002101731D49016100210175062116
:104C50008176002101764176F1E10A2C7ED10A208D
:104C600008490C390870002109481C3841700A2095
:104C700004490C390872002744E00000006A08412A
:104C80007583CB41BC0B0020D00A002000EA063718
:104C9000D40C002080840E41117FCB412492CB4163
:104CA000A0443937400F00206C46CB41006A3841A0
:104CB000C34BCB41A07008373508BC4120441E1EB1
:104CC000384622F034F805460022FB4B22F074F8F7
:104CD00009221207F94B0191009021F051FD039137
:104CE000029021F0D7FF0246F900F54842505022C9
:104CF000F900081802710022F900F1480818427101
:104D0000781CC7B2032FDBDB03200CE00022C300BA
:104D1000EB49CA50C30059180A71C300E849591831
:104D20004A71411CC8B21028F0DB0721E4487C30EE
:104D30008180E448817DE248FC300170012181706E
:104D40004021C17020210171022141710021817136
:104D5000C171017201214172052100E018E08172E8
:104D60000121C17200210173D74901610021017540
:104D700004218176002101764176002005E00022A1
:104D80008300D249CA50411CC8B21028F7DB56E153
:104D90000B2C74D10B20CA490C3908700021CB4868
:104DA0001C3841700B20C6490C390872002721E0DD
:104DB000384621F0BCFF05460022BF4B21F0FCFF26
:104DC00009221207C24B0191009021F0D9FC0391F6
:104DD000029021F05FFF0246F900B948425050228C
:104DE000F900081802710022F900B548081842714C
:104DF000781CC7B2032FDBDB03200CE00022C300CA
:104E0000AF49CA50C30059180A71C300AC495918B8
:104E10004A71411CC8B21028F0DB0721A8487C3039
:104E20008180A848817DA9481C38017001218170CA
:104E30004021C17020210171012141710021817146
:104E4000C171017201214172052181720121C1727A
:104E5000002101739F4901610021017505218176BF
:104E6000002101764176002005E000228300974969
:104E7000CA50411CC8B21028F7DBE0E0FFE70C2C59
:104E800075D10C208E490C39087000218F481C38D0
:104E900041700C208A490C390872002721E03846FD
:104EA00021F045FF05460022834B21F085FF0522B6
:104EB0001207894B0191009021F062FC039102904E
:104EC00021F0E8FE0246F9007D4842505022F900E8
:104ED000081802710022F900794808184271781CFC
:104EE000C7B2022FDBDB02200CE00022C3007449B2
:104EF000CA50C30059180A71C300714959184A7140
:104F0000411CC8B21028F0DB03216D487C30818041
:104F10006C48817D6D481C38017000214170012171
:104F200081704021C1702021017100214171817186
:104F3000C171017201214172052181720121C17289
:104F40000021017365490161002101750521817608
:104F5000002101764176002005E0002283005B49B4
:104F6000CA50411CC8B21028F7DB68E0FFE70D2CDF
:104F700065D10D2052490C390870002153481C3866
:104F800041700D204E490C39087255494C480C3877
:104F9000C160544941615449C16100200BE0502275
:104FA000C300474959180A710022C30044495918DF
:104FB0004A71411CC8B20328F1DB03200CE0002237
:104FC000C3003F49CA50C30059180A71C3003C4985
:104FD00059184A71411CC8B21028F0DB0721384823
:104FE0007C3081803748817D38481C380170002131
:104FF0004170012181704021C17020210171002187
:1050000041718171C1710172012141720521817269
:105010000121C1720021017334490161022101752E
:105020000D218176002101764176002005E00022E5
:1050300083002649CA50411CC8B21028F7DB012062
:1050400005B0F0BD10B51F48C07D04282BD01D4809
:10505000C07D062827D01B48C07D032823D01948CF
:10506000C07D02281FD01748C07D01281BD01548DD
:10507000C07D072817D01348C07D082813D01148D9
:10508000C07D09280FD00F48C07D0B280BD00D48DC
:10509000C07D0A2807D00B48C07D0C2803D00948E2
:1050A000C07D0D2826D13B22120105490C3910483C
:1050B00011F022F920E00000006A0841107BCB418A
:1050C000BC0B0020D00A0020E013F336D40C0020E3
:1050D0003C4ACB41E0A09D362EE5C941E069CD3385
:1050E00064CE8F3384FE9433E8E19D33F080A633A1
:1050F00000020808002010BDFD48C07DFD49097868
:10510000884208D0FA49C87DFFF70FFA002800D17D
:10511000F1E7FFF7BDF90120EDE770B50446002582
:10512000204612F0A4FD0646012E05D0042E19D10A
:10513000F1A0FDF755FB17E0ED48807D00280CD16C
:10514000F5490860FFF77EFFEA4816F0E6FFF348EE
:1051500012F0C0FC03F04CFE03E0F1A0FDF740FBB1
:10516000012501E0012500BF00BF284670BDF0B554
:1051700095B004460025204612F079FD0646022E21
:1051800004D0032E10D0042E32D109E0D848827DFD
:10519000EBA101A820F0FCFC01A8FDF721FB29E010
:1051A000EAA0FDF71DFB25E00A2214A9204612F013
:1051B000F5FD0746012F03D110A8007C022801DD70
:1051C000012517E010A8007C02280CD1E34820F04C
:1051D0000BFF002805D0E148213020F005FF002812
:1051E00001D1012506E010A8007CC149887501E0C5
:1051F000012500BF00BF284615B0F0BDF0B595B041
:1052000004460025204612F032FD0646022E04D048
:10521000032E1AD0042E30D113E01022B449853168
:1052200001A812F018FF102101A813F028FC07466E
:105230003A46CBA105A820F0ABFC05A8FDF7D0FAB3
:105240001DE0CCA0FDF7CCFA19E021220CA92046E4
:1052500012F0F6FD0746012F06D1202210210CA8DE
:10526000FEF742FF002801D1012508E021220CA908
:105270009F48853020F036FF01E0012500BF00BFC8
:10528000284615B0F0BDF0B595B00446002520467F
:1052900012F0EDFC0646022E04D0032E1AD0042E86
:1052A00030D113E010229249643101A812F0D3FEEC
:1052B000102101A813F0E3FB07463A46B8A105A860
:1052C00020F066FC05A8FDF78BFA1DE0B9A0FDF7FC
:1052D00087FA19E021220CA9204612F0B1FD0746F9
:1052E000012F06D1202210210CA8FEF7FDFE002878
:1052F00001D1012508E021220CA97D48643020F06D
:10530000F1FE01E0012500BF00BF284615B0F0BD49
:10531000F0B595B005460026284612F0A8FC0746D1
:10532000022F04D0032F10D0042F28D109E0704899
:10533000C27AACA101A820F02BFC01A8FDF750FA1D
:105340001FE0ABA0FDF74CFA1BE068880A2803D0E9
:105350000126304615B0F0BD0A2214A9284612F0E5
:105360001DFD0446012C03D110A8007C012801DD9D
:10537000012606E010A8007C5D49C87201E0012604
:1053800000BF00BF3046E5E7F0B595B00446002504
:10539000204612F06CFC0646022E04D0032E10D0DC
:1053A000042E22D109E05248027B95A101A820F0E9
:1053B000EFFB01A8FDF714FA19E095A0FDF710FA2C
:1053C00015E00A2214A9204612F0E8FC0746012F36
:1053D00005D11498002802D01498DF2801D901259E
:1053E00005E043491498087301E0012500BF00BFA0
:1053F000284615B0F0BDF0B595B00446002520460E
:1054000012F035FC0646022E04D0032E11D0042ED5
:105410002DD10AE036481022825E82A101A820F038
:10542000B7FB01A8FDF7DCF923E081A0FDF7D8F96F
:105430001FE00A2214A9204612F0B0FC0746012FF3
:105440000DD110A8008A002809D010A91020085EEC
:10545000DF2804DC1020085EB91E884201DA01252D
:1054600007E010A91020085E2149088201E001250B
:1054700000BF00BF284615B0F0BDF0B597B0054697
:1054800000201690284612F0F2FB0646022E2BD181
:105490006CA102A820F07CFB02A8FDF713F95021B3
:1054A00002A820F087FE13481BF003FE1048C07DC1
:1054B000042803D00E48C07D082816D10024F7E048
:1054C000E217120F1219121153006A4AD25A2046DB
:1054D000E3171B0F1B181B111B01E71A0123BB400D
:1054E0001A40002A02D1E2E050E1E5E0C4E0000009
:1054F000D00A0020B00B00202B434A4F494E3A20DF
:10550000446F206A6F696E20666C6F7720666F72D9
:10551000204F5441410D0A002401002048A40208F4
:10552000506C65617365206368616E6765206D6F9F
:10553000646520746F204F5441410D0A0000000043
:105540002B434D4F44453A25640D0A002B434D4FE4
:1055500044453D3C302D323E0D0A0000600A0020DB
:105560002B43415050534B45593A253032580D0A80
:10557000000000002B43415050534B45593D3C41E6
:1055800070702073657373696F6E206B65793A6C08
:10559000656E6774682069732033323E0D0A00001F
:1055A0002B434E574B534B45593A253032580D0A31
:1055B000000000002B434E574B534B45593D3C4E8A
:1055C0006574776F726B2073657373696F6E206B90
:1055D00065793A6C656E6774682069732033323E72
:1055E0000D0A00002B4353594E433A25640D0A001F
:1055F0002B4353594E433D3C302D313E0D0A0000A4
:105600002B4341504F52543A25640D0A00000000CC
:105610002B4341504F52543D3C312D3232333E0DDD
:105620000A0000002B434241503A25640D0A000055
:105630002B434241503D3C2D312C20312D32323311
:105640003E0D0A002B435143483A0D0A4368616EF0
:105650006E656C5B695D3A204672657175656E6357
:10566000792C20447252616E67652C2042616E6411
:105670000D0A0000BC0E0020E100F948081841792D
:10568000E200F74812180420105601910090E10042
:10569000F34843582246F3A102A820F079FA02A861
:1056A000FDF710F8502102A820F084FD00BF641C13
:1056B000482C00DA04E768E0F148C07D092834D1BD
:1056C00000242FE0E217120F121912115300ED4AB5
:1056D000D25A2046E3171B0F1B181B111B01E71A98
:1056E0000123BB401A40002A00D11AE0E100DC4847
:1056F00008184179E200DA48121804201056019186
:105700000090E100D64843582246D6A102A820F0D6
:105710003FFA02A8FCF7D6FF502102A820F04AFD6C
:1057200000BF641C602CCDDB2FE000242BE0204662
:10573000E117090F091809110901621A01219140A5
:10574000C74A7C3292881140002900D11AE0E1005A
:10575000C34808184179E200C148121804201056C5
:1057600001910090E100BE4843582246BDA102A825
:1057700020F00EFA02A8FCF7A5FF502102A820F0A5
:1057800019FD00BF641C102CD1DB02E00120169033
:1057900000BF00BF169817B0F0BDF0B595B0054634
:1057A0000026284612F063FA0746B548C07D042853
:1057B00007D0B348C07D082803D0B148C07D092870
:1057C00005D1B1A0FDF70CF8002015B0F0BD022FF7
:1057D00035D1A3480C381BF06CFCB2A101A820F015
:1057E000D7F901A8FCF76EFF502101A820F0E2FCD8
:1057F000002421E02046E117090F091809110901C9
:10580000621A01219140964A7C3292881140002907
:1058100000D10FE0A100AC4843582246ABA101A83B
:1058200020F0B6F901A8FCF74DFF502101A820F0A7
:10583000C1FC00BF601CC4B2102CDBDB01E0012600
:1058400000BF00BF3046C0E7F0B595B00446002564
:10585000204612F00CFA0646A148C07C002802D16E
:10586000012015B0F0BD022E04D0032E10D0042E5E
:1058700021D109E08248427B9AA101A820F088F951
:1058800001A8FCF7ADFF18E099A0FCF7A9FF14E010
:105890000A2214A9204612F081FA0746012F03D1EB
:1058A00010A8007C012801DD012506E010A8007C7D
:1058B0007349487301E0012500BF00BF2846D0E7C7
:1058C000F0B595B004460025204612F0D0F9064602
:1058D000022E04D0032E31D0042E57D122E060488E
:1058E0000C381BF0E6FB6648C07D042807D06448EE
:1058F000C07D082803D06248C07D092807D16148CF
:105900008430027A7EA101A820F042F906E06E48B8
:105910001C38027A7AA101A820F03AF901A8FCF714
:105920005FFF35E0794803787948027879A101A8CA
:1059300020F02EF901A8FCF753FF29E00A2214A950
:10594000204612F02BFA0746012F05D16F48007848
:1059500010A9097C884201DA012519E04848C07D78
:10596000042807D04648C07D082803D04448C07D9D
:10597000092805D110A8017C42488430017204E056
:1059800010A8017C50481C38017201E0012500BFBD
:1059900000BF284615B0F0BD10B5AEB0A82104A8D0
:1059A00020F008FC04A8002100910B46624A0191F6
:1059B0000290A62132481BF04CFDA62204A95F48A4
:1059C00010F0B1FC0446002C01D12EB010BD012016
:1059D000FBE770B504460E461546072D01DA002098
:1059E00070BD2946304620F0E3FB230023F091F9F7
:1059F0000EE6080E141A20262C32C8CED4DAE0E6C1
:105A000005224FA1304620F06DFBDEE005224EA1BD
:105A1000304620F067FBD8E005224DA1304620F04B
:105A200061FBD2E005224CA1304620F05BFBCCE0CC
:105A300006224BA1304620F055FBC6E005224AA1C4
:105A4000304620F04FFBC0E0042249A1304620F050
:105A500049FBBAE0062248A1304620F043FBB4E0FF
:105A6000BC0B00204368616E6E656C5B2532645D23
:105A70003A2025642C2025582C2025640D0A00008E
:105A8000D00A0020BC0E002054686973207265673C
:105A9000696F6E206E6F7420737570706F727421F1
:105AA0000D0A00002B43514443483A0D0A436861F4
:105AB0006E6E656C5B695D3A204672657175656EE8
:105AC00063790D0A00000000D40C00204368616E69
:105AD0006E656C5B2532645D3A2025640D0A00001A
